:020000040000FA
:10000000042800000000000083160313003088005D
:10001000831203138801043083120313A00008160F
:100020006C2008126C20A00B0F287420083083125B
:100030000313A0000816642008126420A00B1A28DD
:100040007420303083120313A00008165C200812BD
:100050005C20A00B25287420FF3083120313A0001E
:100060000816542008125420A00B30287420103099
:10007000A000FF30A1000816462008124620A10B60
:100080003B28A00B3928742074200B2883120313FB
:10009000C530A200A20B4A28080083120313A43023
:1000A000A300A30B51280800831203130A30A400F5
:1000B0004D20A40B58280800831203136430A500B8
:1000C0004D20A50B60280800831203130A30A600F8
:1000D0005C20A60B68280800831203130530A700D4
:1000E0006420A70B70280800831203136430A80053
:1000F0005C20A80B78280800831203130A30A9009B
:100100007420A90B80280800831203133C30AA0036
:080110007420AA0B88280800E6
:00000001FF
