:020000040000FA
:10000000000083160313880103309F00831203133B
:10001000880141309F007120112016202D208C2056
:100020000C281F151F1912281E080800B300B40160
:10003000B501B60103146430B302B40A03181C28D6
:10004000B307B40303140A30B302B50A0318242813
:10005000B307B5033308B6000800F4108030612000
:10006000F4143030B407B507B607340861202E30D9
:10007000612035086120360861202030612056302B
:1000800061206F3061206C306120743061207330EA
:1000900061200800F41080306120F4145430612095
:1000A0000800F930F0000000F00B53280800F100C0
:1000B0005120F10B58280800081551200811512033
:1000C0000800F500F0398800F41888145C205120ED
:1000D000F50E7508F0398800F41888145C2051205A
:1000E000080064305720F030F400303088005C2085
:1000F000053057205C2051205C2008125C202830FD
:10010000612008306120013061200630612080309C
:1001100061200C3061200800FA305720FA30572057
:10012000FA305720FA3057200800F2008C20F20BEA
:040130009628080005
:02400E00313748
:00000001FF
